:020000040000FA
:100000000C945D000C9485000C9485000C94850084
:100010000C9485000C9485000C9485000C9485004C
:100020000C9485000C9485000C9485000C9485003C
:100030000C9485000C9485000C9485000C9485002C
:100040000C94A9080C9485000C9477080C94510822
:100050000C9485000C9485000C9485000C9485000C
:100060000C94F3080C9485000000000800020100C5
:100070000003040700000000000000000000000072
:10008000250028002B0000000000240027002A0083
:10009000040404040404040402020202020203032E
:1000A0000303030301020408102040800102040836
:1000B0001020010204081020120A11241FBECFEFE5
:1000C000D8E0DEBFCDBF11E0A0E0B1E0E6EBF3E2A7
:1000D00002C005900D92A035B107D9F723E0A0E545
:1000E000B1E001C01D92A031B207E1F710E0CDE50B
:1000F000D0E004C02197FE010E94BB11CC35D1078E
:10010000C9F70E94680A0C94D9110C94000090E081
:10011000FC01EC55FF4F249180579F4FFC018491C7
:10012000882399F090E0880F991FFC01EA57FF4F50
:10013000A591B491FC01E458FF4F859194918FB73C
:10014000F894EC91E22BEC938FBF08958091F1012C
:100150009091F201891B990B089508950895AF922B
:10016000BF92CF92DF92EF92FF920F931F93CF93A4
:10017000DF936C017B018B01040F151FEB015E0106
:10018000AE18BF08C017D10759F06991D601ED919B
:10019000FC910190F081E02DC6010995892B79F73A
:1001A000C501DF91CF911F910F91FF90EF90DF90EC
:1001B000CF90BF90AF900895FC01538D448D252FB3
:1001C00030E0842F90E0821B930B541710F0CF96F1
:1001D000089501970895FC01918D828D981761F023
:1001E000A28DAE0FBF2FB11D5D968C91928D9F5F3A
:1001F0009F73928F90E008958FEF9FEF0895FC0119
:10020000918D828D981731F0828DE80FF11D858DCB
:1002100090E008958FEF9FEF0895FC01918D228D5E
:10022000892F90E0805C9F4F821B91098F739927E3
:10023000089583E192E00E940D0121E0892B09F4E9
:1002400020E0822F089580E090E0892B29F00E9421
:10025000190181110C9400000895FC01A48DA80FD0
:10026000B92FB11DA35ABF4F2C91848D90E00196F8
:100270008F739927848FA689B7892C93A089B18918
:100280008C91837080648C93938D848D981306C0B9
:100290000288F389E02D80818F7D80830895EF921D
:1002A000FF920F931F93CF93DF93EC0181E0888F30
:1002B0009B8D8C8D98131AC0E889F989808185FF00
:1002C00015C09FB7F894EE89FF896083E889F989A2
:1002D00080818370806480839FBF81E090E0DF91A4
:1002E000CF911F910F91FF90EF900895F62E0B8DF7
:1002F00010E00F5F1F4F0F731127E02E8C8D8E11B2
:100300000CC00FB607FCFACFE889F989808185FF18
:10031000F5CFCE010E942D01F1CFEB8DEC0FFD2F1B
:10032000F11DE35AFF4FF0829FB7F8940B8FEA89D3
:10033000FB8980818062CFCFCF93DF93EC01888DE2
:100340008823B9F0AA89BB89E889F9898C9185FD50
:1003500003C0808186FD0DC00FB607FCF7CF8C91DE
:1003600085FFF2CF808185FFEDCFCE010E942D0168
:10037000E9CFDF91CF91089590E0FC01E859FF4F5C
:100380002491FC01EC55FF4F3491FC01E057FF4FE5
:10039000E491EE23C9F0222339F0233001F1A8F4CF
:1003A000213019F1223029F1F0E0EE0FFF1FE4585F
:1003B000FF4FA591B4918FB7F894EC91611126C0CD
:1003C00030953E233C938FBF08952730A9F0283005
:1003D000C9F0243049F7809180008F7D03C080915F
:1003E00080008F7780938000DFCF84B58F7784BDC6
:1003F000DBCF84B58F7DFBCF8091B0008F7780936A
:10040000B000D2CF8091B0008F7DF9CF3E2BDACFF4
:100410003FB7F8948091990190919A01A0919B0126
:10042000B0919C0126B5A89B05C02F3F19F00196FD
:10043000A11DB11D3FBFBA2FA92F982F8827BC013E
:10044000CD01620F711D811D911D43E0660F771F65
:10045000881F991F4A95D1F708958F929F92AF9266
:10046000BF92CF92DF92EF92FF924B015C010E940C
:1004700008026B017C010E9408026C197D098E093B
:100480009F09683E734081059105A8F321E0821A17
:100490009108A108B10888EEC80E83E0D81EE11CBF
:1004A000F11C81149104A104B10429F7FF90EF908D
:1004B000DF90CF90BF90AF909F908F900895209144
:1004C0007101260F3327331F21323105ECF42091BF
:1004D000EB01FC0190E080E0243069F082E00895B7
:1004E000A09171012191AC014F5A5E4FA40FB52F1D
:1004F000B11D2C930196861798F380917101680FB6
:100500006093710180E0089581E008951092EB01FD
:1005100081E08093EA011092E50161E082E10E94AE
:10052000BC0161E083E10E94BC01E9EBF0E0808165
:100530008E7F808380818D7F808380E28093B8006E
:1005400085E48093BC000895CF93DF9391E090936E
:1005500050018823B9F0C091B800D091BA008091C1
:10056000BC008A7B8093BC0060E082E10E94BC01F9
:1005700060E083E10E94BC010E948602D093BA0031
:10058000C093B800DF91CF910895CF92DF92EF92A0
:10059000FF920F931F93CF93DF93D091C40181E01B
:1005A000D13208F09CC0C091C3010E9408026B01C7
:1005B0007C018091EB0181116CC082E08093EB01A2
:1005C00081E08093EA018FEF8093E9011092E801C6
:1005D000D093E701A3EAB1E0E5ECF1E080E0D813C5
:1005E0008DC01092E6018091E601CC0FC82BC0931C
:1005F000E6018091E501813009F084C01092E501A7
:100600000E9408026B017C018091E6018093BB008F
:100610008091ED019091EE01A091EF01B091F00178
:10062000892B8A2B8B2BA1F00E9408020091ED01EF
:100630001091EE012091EF013091F0016C197D09CC
:100640008E099F09061717072807390708F442C0C3
:100650008091BC0083FDD8CF85EC8093BC000E94C4
:1006600008026B017C018091EB01823009F44CC0DF
:100670008091E9018F3F09F469C08091E9018032DE
:1006800009F466C08091E901803309F463C084E015
:1006900026C08091ED019091EE01A091EF01B09103
:1006A000F001892B8A2B8B2B09F483CF0E9408023F
:1006B0000091ED011091EE012091EF013091F001D8
:1006C0006C197D098E099F09061717072807390736
:1006D00008F06FCF8091EC010E94A40285E0109297
:1006E000A2011092C4011092A101DF91CF911F913C
:1006F0000F91FF90EF90DF90CF9008959D9191938F
:100700008F5F6DCF85EEA9CF8091ED019091EE01C5
:10071000A091EF01B091F001892B8A2B8B2B09F46A
:10072000A2CF0E9408020091ED011091EE012091EC
:10073000EF013091F0016C197D098E099F090617B0
:1007400017072807390708F08ECFC4CF80E0C7CF3E
:1007500082E0C5CF83E0C3CF0895E091F20180919C
:10076000F101E81730F4F0E0ED50FE4F808190E0A9
:1007700008958FEF9FEF08959091F2018091F1011C
:100780002FEF3FEF981748F4E92FF0E0ED50FE4FC0
:10079000208130E09F5F9093F201C9010895CF93CB
:1007A000DF9380EB92E00E94BC03D82F80EB92E0B5
:1007B0000E94BC03C82F80EB92E00E94BC0380E043
:1007C0009D2F8C2BDF91CF910895CF92DF92EF92E6
:1007D000FF920F931F93CF93DF937C01CB018A018C
:1007E0002091A101222389F0EB016B01C40ED51EDB
:1007F000CC15DD0569F06991D701ED91FC9101906F
:10080000F081E02DC7010995F3CF642F0E945F02AC
:10081000C801DF91CF911F910F91FF90EF90DF9072
:10082000CF900895CF93DF931F92CDB7DEB7698342
:100830002091A1012223F9F02091C401203258F027
:1008400021E030E0FC013383228390E080E00F90D0
:10085000DF91CF9108958091A201E82FF0E0ED554E
:10086000FE4F998190838F5F8093A2018093C40192
:1008700081E090E0ECCF61E0CE0101960E945F0242
:10088000F7CF682F80EB92E00C941204089590E06B
:1008900080E008958F929F92AF92BF92CF92DF92A5
:1008A000EF92FF920F931F93CF93DF937C01D62F8C
:1008B0000E9408024B015C018091EB01811167C02D
:1008C000CD2F81E08093EB018093EA019FEF90931D
:1008D000E9011092E8019D0F9093E7018093E601F2
:1008E0008091E601EE0CFF1C8E298093E601809139
:1008F000E501813009F083C01092E5010E940802F1
:100900006B017C018091E6018093BB008091ED0139
:100910009091EE01A091EF01B091F001892B8A2B0B
:100920008B2BA1F00E9408028090ED019090EE01C7
:10093000A090EF01B090F0016C197D098E099F091C
:1009400086169706A806B90608F442C08091BC0036
:1009500083FDD8CF85EC8093BC000E9408026B0118
:100960007C018091EB01813009F44BC08091E8015A
:100970008D1710F4C091E801E5ECF1E0A3EFB1E0D0
:1009800080E08C1751F191919D938F5FFACF809108
:10099000ED019091EE01A091EF01B091F001892B52
:1009A0008A2B8B2B09F488CF0E9408020091ED015D
:1009B0001091EE012091EF013091F0016819790951
:1009C0008A099B09061717072807390708F074CF0B
:1009D0008091EC010E94A402C0E01092F201C09349
:1009E000F1018C2FDF91CF911F910F91FF90EF902C
:1009F000DF90CF90BF90AF909F908F90089585EE3D
:100A0000AACF8091ED019091EE01A091EF01B091FC
:100A1000F001892B8A2B8B2B09F4A3CF0E940802AB
:100A20008090ED019090EE01A090EF01B090F00168
:100A30006C197D098E099F0986169706A806B906C6
:100A400008F08FCFC5CFCF9391E09093A10197E7A6
:100A50009093C3011092A2011092C401082E000CC1
:100A6000990B0E9441040E94C50262E070E087E792
:100A700090E00E944A048091F1019091F201891B5B
:100A8000990B02979CF080EB92E00E94BC03C82F68
:100A900080EB92E00E94BC03682F880F770B7C2BC1
:100AA000072E000C880B990BCF91089560E070E041
:100AB000CB01FACFCF9391E09093A10197E7909368
:100AC000C3011092A2011092C401082E000C990BD0
:100AD0000E9441040E94C50262E070E087E790E056
:100AE0000E944A048091F1019091F201891B990BB7
:100AF000029794F080EB92E00E94BC03C82F80EB39
:100B000092E00E94BC0360E07C2F682B072E000C53
:100B1000880B990BCF91089560E070E0CB01FACF7C
:100B2000CF93DF93EC0160E08E810E94BC0161E015
:100B30008E810E94BC0160E08E810E94BC0184EC29
:100B400090E00197F1F7DF91CF910895CF92DF9276
:100B5000EF92FF920F931F93CF93DF936C017C0171
:100B600087E0E80EF11CD0E0C0E0062F10E0B801ED
:100B70000C2E02C0759567950A94E2F76170F70133
:100B800081917F010E94BC012196C430D10579F783
:100B9000C601DF91CF911F910F91FF90EF90DF90F1
:100BA000CF900C949005CF92DF92EF92FF920F932B
:100BB0001F93CF93DF93EC01F62E642F8C810E945C
:100BC000BC018D818F3F19F060E00E94BC010F2DA8
:100BD00010E08F8584FF25C06E0187E0C80ED11C10
:100BE000F12CE12CB8010E2C02C0759567950A9482
:100BF000E2F76170F60181916F010E94BC01FFEF85
:100C0000EF1AFF0A88E0E816F10461F7CE01DF91E0
:100C1000CF911F910F91FF90EF90DF90CF900C94A8
:100C20009005B80184E0759567958A95E1F7CE0146
:100C30000E94A6056F2DCE01DF91CF911F910F91DC
:100C4000FF90EF90DF90CF900C94A60540E0682FC6
:100C500088EF92E00C94D30581E00E9426068CE98F
:100C60009FE00197F1F70895CF93DF93823029F445
:100C70009091070398609093070380930B03109261
:100C80000C0380E480930D0380E180930E0380E5E4
:100C900080930F038091FC020E9487008091FD02E7
:100CA0008F3F11F00E9487008091FE020E94870012
:100CB000C8EFD2E09E01285F32408091070384FD97
:100CC0000AC084E090E02196281739073CF48E8111
:100CD0000E948700EFCF88E090E0F5CF8CE996E89E
:100CE0000197F1F760E08091FC020E94BC0160E096
:100CF0008091FE020E94BC018091FD028F3F19F09D
:100D000060E00E94BC018091070384FD34C063E071
:100D100088EF92E00E94A605C4E2D3E2CE010197DB
:100D2000F1F763E088EF92E00E94A6052197F1F7C2
:100D300063E088EF92E00E94A60588E291E00197C7
:100D4000F1F762E088EF92E00E94A6058091070328
:100D500080620E94260684E0809308038CE00E9453
:100D600026060E942C0682E08093090386E0DF912C
:100D7000CF910C94260680620E94260684E293E2BC
:100D80000197F1F78091070380620E94260688E2AE
:100D900091E00197F1F78091070380620E94260697
:100DA000D5CF90910B03691710F06FEF690FE62F05
:100DB000F0E0E850FD4F9489890F80680C94260676
:100DC00041E00E94D30581E090E00895FB0101908D
:100DD0000020E9F73197AF01461B570BDC01ED917D
:100DE000FC910280F381E02D09948F929F92AF9243
:100DF000BF920F931F93CF93DF93CDB7DEB7A19729
:100E00000FB6F894DEBF0FBECDBF19A2423008F472
:100E10004AE08E010F5D1F4F842E912CB12CA12C26
:100E2000A50194010E942411E62FB901CA01EA30FC
:100E300004F5E05DD801EE938D01232B242B252BA7
:100E400079F790E080E0109729F0BD0188EF92E0FB
:100E50000E94E606A1960FB6F894DEBF0FBECDBF86
:100E6000DF91CF911F910F91BF90AF909F908F9086
:100E70000895E95CDFCF4F925F926F927F928F92DD
:100E80009F92AF92BF92CF92DF92EF92FF920F9319
:100E90001F93CF936B017C01742EAC019B010E94C8
:100EA0000F1160E371E0811126C046015701E894FB
:100EB000B7F82FEF3FEF4FE75FE7C501B4010E949E
:100EC0000F1181110CC02FEF3FEF4FE75FE7C50116
:100ED000B4010E94000F64E371E0181664F02FEF74
:100EE0003FEF4FE75FE4C701B6010E949D1018165F
:100EF000ACF468E371E088EF92E0CF911F910F911D
:100F0000FF90EF90DF90CF90BF90AF909F908F9029
:100F10007F906F905F904F900C94E6062FEF3FEF1D
:100F20004FE75FECC701B6010E94000F87FDE1CFDC
:100F300020E030E0A901C701B6010E94000F10E0D7
:100F400000E087FF0CC041E06DE288EF92E00E9474
:100F5000D305F7FAF094F7F8F09401E010E0C0E060
:100F600060E070E080E09FE37C1641F020E030E03C
:100F700040E251E40E94050FCF5FF6CFA701960132
:100F80000E94940E4B015C010E947E0F2B013C01DC
:100F90004AE00E94F506080F191FCC23C9F1C301CE
:100FA000B2010E94AD0F9B01AC01C501B4010E94CA
:100FB000930E4B015C0141E06EE288EF92E00E94EB
:100FC000D3050F5F1F4FC15018F120E030E040E221
:100FD00051E4C501B4010E94A2102B013C010E9402
:100FE0007E0F4B01B12CA12C4AE0C501B4010E9437
:100FF000F506080F191FC501B4010E94AD0F9B0132
:10100000AC01C301B2010E94930E4B015C01DBCF26
:10101000C801CF911F910F91FF90EF90DF90CF907B
:10102000BF90AF909F908F907F906F905F904F9008
:10103000089585ED8093BC008091ED019091EE01C3
:10104000A091EF01B091F0010796A11DB11D23E021
:10105000B695A795979587952A95D1F72091BC00CD
:1010600024FD03C01092EB0108954091ED015091D1
:10107000EE016091EF017091F001452B462B472B5B
:1010800069F30097A105B10541F02AE12A95F1F72E
:1010900000C00197A109B109E1CF8091EC010C9446
:1010A000A4021F920F920FB60F9211242F933F9319
:1010B0004F935F936F937F938F939F93AF93BF9360
:1010C000EF93FF9383E192E00E942D01FF91EF9156
:1010D000BF91AF919F918F917F916F915F914F9150
:1010E0003F912F910F900FBE0F901F9018951F9258
:1010F0000F920FB60F9211242F938F939F93EF931C
:10110000FF93E0912302F09124028081E091290273
:10111000F0912A0282FD1BC0908180912C028F5F8A
:101120008F7320912D02821741F0E0912C02F0E0A4
:10113000ED5EFD4F958F80932C02FF91EF919F9173
:101140008F912F910F900FBE0F901F901895808157
:10115000F4CF1F920F920FB60F9211242F933F934B
:101160008F939F93AF93BF93809195019091960138
:10117000A0919701B09198013091940126E0230F3E
:101180002D3758F50296A11DB11D2093940180932F
:10119000950190939601A0939701B0939801809147
:1011A000990190919A01A0919B01B0919C010196A7
:1011B000A11DB11D8093990190939A01A0939B0169
:1011C000B0939C01BF91AF919F918F913F912F91CF
:1011D0000F900FBE0F901F90189529E8230F0396CC
:1011E000A11DB11DD2CF1F920F920FB60F921124E5
:1011F0002F933F934F935F936F937F938F939F931F
:10120000AF93BF93EF93FF938091B900887F8036AF
:1012100009F44AC0F0F5883209F4A7C018F5803106
:1012200009F49BC0B8F4882309F4F9C0883009F4A4
:1012300094C0FF91EF91BF91AF919F918F917F915A
:101240006F915F914F913F912F910F900FBE0F9033
:101250001F901895883109F488C0803251F7809327
:10126000E90114C0803409F49DC040F48033B9F31F
:101270008833F9F68093E90185ECB0C0803509F434
:1012800085C0883509F496C0883499F60E941908FB
:10129000D0CF883909F48CC038F5883729F050F45C
:1012A000883611F0803729F683E08093EB011092A5
:1012B000930157C0883809F47BC0803919F0803811
:1012C00009F0B7CF80919301803208F071C0E091AE
:1012D000930181E08E0F809393018091BB00F0E039
:1012E000ED58FE4F80833DC0803B39F0E0F4803AFA
:1012F00009F479C0883A09F09CCF84E08093EB012F
:101300001092720110927101E0919D01F0919E0185
:1013100009958091710181110FC081E08093710165
:101320001092510109C0803C09F4A6CF883C09F411
:10133000A3CF883B09F07DCFE091720181E08E0F51
:1013400080937201F0E0EF5AFE4F80818093BB00E2
:10135000909172018091710129C08091E601809382
:10136000BB0085EC8093BC0064CF9091E801809134
:10137000E701981758F5E091E80181E08E0F80931E
:10138000E801F0E0EB53FE4F8081E9CFE091E80106
:1013900081E08E0F8093E8018091BB00F0E0EB5379
:1013A000FE4F80839091E8018091E7019817C8F281
:1013B00085E8D8CFE091E80181E08E0F8093E801C5
:1013C0008091BB00F0E0EB53FE4F80838091EA01F7
:1013D00081115CCF81E08093E50184EA8093BC00B9
:1013E0001092EB0126CF85EC8093BC001092EB01AC
:1013F00080919301803230F4E0919301F0E0ED5858
:10140000FE4F10826091930170E0E0919F01F09196
:10141000A00183E791E00995109293010ACF109201
:10142000E90134CFE3E1F2E01382128288EE93E027
:10143000A0E0B0E084839583A683B78324E031E005
:101440003183208325EC30E03587248724EC30E09D
:101450003787268720EC30E0318B208B21EC30E081
:10146000338B228B22EC30E0358B248B26EC30E062
:10147000378B268B118E128E138E148EE0EBF2E0DA
:101480001382128284839583A683B78386E191E0D9
:1014900091838083E8EFF2E01382128288E291E088
:1014A0009183808382E084838FEF858383E08683CA
:1014B00084E0878385E0808786E0818787E0828774
:1014C0001386148615861686178681E00C943406DA
:1014D000CF93DF93CDB7DEB760970FB6F894DEBF3A
:1014E0000FBECDBF789484B5826084BD84B5816021
:1014F00084BD85B5826085BD85B5816085BD8091DF
:101500006E00816080936E00109281008091810056
:10151000826080938100809181008160809381004E
:10152000809180008160809380008091B100846010
:101530008093B1008091B00081608093B000809171
:101540007A00846080937A0080917A008260809330
:101550007A0080917A008E7F80937A0080917A0061
:10156000806880937A001092C10082E00E94340665
:101570001092F2011092F1011092A2011092C40196
:101580000E9486028DEA90E090939E0180939D01D7
:101590008EEA90E09093A00180939F018AEA0E94D6
:1015A00023057093C1026093C0028CEA0E94230558
:1015B0007093C3026093C2028EEA0E942305709367
:1015C000C5026093C40280EB0E945A057093D30257
:1015D0006093D20282EB0E945A057093D502609309
:1015E000D40284EB0E945A057093D7026093D6020E
:1015F00086EB0E9423057093C7026093C60288EBB6
:101600000E9423057093C9026093C8028AEB0E946E
:1016100023057093CB026093CA028CEB0E942305D2
:101620007093CD026093CC028EEB0E9423057093E1
:10163000CF026093CE0284EF0E942305E6E0759509
:101640006795EA95E1F7637077277093D10260930D
:10165000D0021092F2011092F1011092A2011092A8
:10166000C4010E948602E0912302F091240282E0EC
:101670008083E0911F02F09120021082E09121020C
:10168000F091220287E6808310922B02E0912702DC
:10169000F091280286E08083E0912502F0912602F5
:1016A000808180618083E0912502F0912602808113
:1016B00088608083E0912502F09126028081806815
:1016C0008083E0912502F091260280818F7D8083C6
:1016D0006CE371E088EF92E00E94E60660ED77E04F
:1016E00080E090E00E942D020E942C0662E471E0EE
:1016F00083E192E00E94E60633243394F7E72F2E2D
:1017000024EF29838091D0029091D10276E0880F56
:10171000991F7A95E1F784638A833092A101209220
:10172000C3011092A2011092C40142E050E0BE0138
:101730006F5F7F4F80EB92E00E94E5030E94C5023D
:101740008091D0029091D1028130910509F4CDC2EF
:101750000CF0B9C2892B09F4C1C23092A1012092C8
:10176000C3011092A2011092C40186EF90E00E9482
:1017700041040E94C50262E070E087E790E00E94A9
:101780004A049091F1018091F201981709F4B7C2CF
:1017900080EB92E00E94BC03182F80EB92E00E9445
:1017A000BC03082E000C990B912B9C01990F440B44
:1017B000550B2B833C834D835E834090E802509011
:1017C000E9026090EA027090EB0290EA491A9FE009
:1017D000590A610871084092EC025092ED02609241
:1017E000EE027092EF02A3019201C301B2010E94C6
:1017F00014110E94AF0F20E030E040E859E30E944E
:10180000A2106B017C01A091D002B091D102B88BE3
:10181000AF876091C8027091C902072E000C880B37
:10182000990B0E94AF0FA70196010E94A21020E021
:1018300030E040E05AE30E94A2100E94770F4B0173
:101840005C01A091C202B091C302A30192010E9467
:1018500070110E94AF0F20E030E040E05AE30E9498
:10186000A2100E94770F680D791D8A1D9B1D809024
:10187000C0029090C102880C991C880C991C092CFC
:10188000000CAA08BB08680D791D8A1D9B1D2F85B9
:1018900038892E5F3F4F04C0660F771F881F991F3E
:1018A0002A95D2F724E030E040E050E00E94461153
:1018B0002F83388749875A872093E4023093E502C3
:1018C0004093E6025093E702A091C402B091C50292
:1018D000A30192010E9470110E94AF0F20E030E03E
:1018E00040E059E30E94A2100E94770F2B013C01B7
:1018F0006091C6027091C702072E000C880B990BED
:101900000E94AF0FA70196010E94A21020E030E0D4
:1019100040E857E30E94A2100E94770F640D751DE6
:10192000861D971D6E5F7F4F8F4F9F4F0E94AF0F99
:1019300020E030E040E85EE30E94A2100E94770FB2
:101940006093E0027093E1028093E2029093E302DD
:1019500070588F4F9F4F2091D2023091D30250E0A8
:1019600040E00E9478110E94EA0F20E030E040E061
:1019700058E30E94A2100E947E0F2B013C0140926E
:10198000F4025092F5026092F6027092F702CB8058
:10199000DC80ED80FE80FF0CCC08DC2C76012F81F2
:1019A000388549855A85550F220B322FA9012B877F
:1019B0003C874D875E872B813C814D815E816C2DFC
:1019C0007C2D8C2D9C2DAF80B884C984DA84EB8467
:1019D000FE2C0E2D1E2D0E94B211F22FE32F80E55A
:1019E00093ECA0E0B0E00F8404C0B595A79597955F
:1019F00087950A94D2F7F82E092F1A2F2F2F3E2FF2
:101A00006F2D702F812F9B2F0E9414116093F00275
:101A10007093F1028093F2029093F30297FD77C1E5
:101A2000660F771F881F991FA30192010E9424113E
:101A30002093BC023093BD024093BE025093BF027C
:101A40004090BC025090BD026090BE027090BF02F8
:101A5000C301B2010E94AF0F4B015C0120E030E0F6
:101A600040E85BE30E94A2109B01AC010E94A2101F
:101A70000E94770F9B01AC01AEEDBBE00E946511A7
:101A80000E94AF0F20E030E040E857E30E94A21030
:101A90000E94770F6B017C01C092D802D092D902CC
:101AA000E092DA02F092DB02A3E4B3EEA30192012A
:101AB0000E9473110E94AF0F20E030E040E857E32E
:101AC0000E94A2100E94770F6093DC027093DD02E7
:101AD0008093DE029093DF026C0D7D1D8E1D9F1D95
:101AE0006153714F8F4F9F4F0E94AF0F20E030E046
:101AF00040E85DE30E94A210A50194010E94940EAB
:101B00000E94770F4B015C018092BC029092BD0253
:101B1000A092BE02B092BF023092A10130E4309395
:101B2000C3011092A2011092C40183EF90E00E94C1
:101B300041040E94C50266E970E080E090E00E94E6
:101B40002D0263E070E080E490E00E944A048091FE
:101B5000F1019091F201891B990B03970CF4E0C0FD
:101B60000E94CF03BC0190E080E00E94AD0F20E016
:101B700030E040E857E30E94A21022E538EB4FE244
:101B800053E40E94A21026E636E64BE352E40E949C
:101B9000930E6B017C013092A1011092A201109270
:101BA000C40185EF90E00E9441040E94C50266E9ED
:101BB00070E080E090E00E942D0263E070E080E43D
:101BC00090E00E944A048091F1019091F201891BFA
:101BD000990B0FEF1FEF03971CF00E94CF038C01AE
:101BE00060E080E00E94D10642E0C701B6010E9499
:101BF0003B0760E085E00E94D10668E471E088EF71
:101C000092E00E94E60660E089E00E94D106B801F9
:101C100090E080E00E94AD0F20E030E040E857E324
:101C20000E94A21020E030E04AEF52E40E94A2108D
:101C300020E030E040EC50E40E94930E42E00E942D
:101C40003B0760E08EE00E94D1066AE471E088EF15
:101C500092E00E94E60661E080E00E94D1064AE040
:101C6000C501B401B7FE0EC041E06DE288EF92E01D
:101C70000E94D30566277727CB01681979098A095D
:101C80009B094AE00E94F50661E087E00E94D106C8
:101C90006CE471E088EF92E00E94E60664EF71E088
:101CA00080E090E00E942D020E942C0640E050E06F
:101CB000452B09F425CD0E941901882309F420CD74
:101CC0000E9400001DCD82309105A1F0039709F01C
:101CD00044CD69E170E080E090E004C064E070E031
:101CE00080E090E00E942D0238CD67E070E080E057
:101CF00090E0F8CF6DE070E080E090E0F3CF8FEF00
:101D00009FEFDC018B839C83AD83BE8356CDA30103
:101D100092010E942411220F331F441F551F88CEA9
:101D20008FEF9FEF1FCF5058BB27AA270E94AB0E03
:101D30000C9463100E94551038F00E945C1020F043
:101D400039F49F3F19F426F40C9452100EF4E095E8
:101D5000E7FB0C944C10E92F0E94741058F3BA174B
:101D6000620773078407950720F079F4A6F50C94B1
:101D700096100EF4E0950B2EBA2FA02D0B01B90191
:101D800090010C01CA01A0011124FF27591B99F0F1
:101D9000593F50F4503E68F11A16F040A22F232FFD
:101DA000342F4427585FF3CF469537952795A7954D
:101DB000F0405395C9F77EF41F16BA0B620B730BF4
:101DC000840BBAF09150A1F0FF0FBB1F661F771F65
:101DD000881FC2F70EC0BA0F621F731F841F48F41A
:101DE000879577956795B795F7959E3F08F0B0CFA3
:101DF0009395880F08F09927EE0F9795879508958A
:101E00000E94281008F481E008950E94190F0C9494
:101E100063100E945C1058F00E94551040F029F4A5
:101E20005F3F29F00C944C1051110C9497100C94B6
:101E300052100E94741068F39923B1F3552391F363
:101E4000951B550BBB27AA2762177307840738F029
:101E50009F5F5F4F220F331F441FAA1FA9F335D086
:101E60000E2E3AF0E0E832D091505040E695001C3A
:101E7000CAF72BD0FE2F29D0660F771F881FBB1FF4
:101E8000261737074807AB07B0E809F0BB0B802DD2
:101E9000BF01FF2793585F4F3AF09E3F510578F0FE
:101EA0000C944C100C9497105F3FE4F3983ED4F3DD
:101EB000869577956795B795F7959F5FC9F7880FD2
:101EC000911D9695879597F90895E1E0660F771F24
:101ED000881FBB1F621773078407BA0720F0621BB5
:101EE000730B840BBA0BEE1F88F7E09508950E94E0
:101EF0007E0F6894B1110C94971008950E947C1085
:101F000088F09F5798F0B92F9927B751B0F0E1F0BA
:101F1000660F771F881F991F1AF0BA95C9F714C06A
:101F2000B13091F00E949610B1E008950C94961093
:101F3000672F782F8827B85F39F0B93FCCF38695A3
:101F400077956795B395D9F73EF490958095709500
:101F500061957F4F8F4F9F4F0895E89409C097FB7D
:101F60003EF490958095709561957F4F8F4F9F4F70
:101F70009923A9F0F92F96E9BB279395F6958795B4
:101F800077956795B795F111F8CFFAF4BB0F11F477
:101F900060FF1BC06F5F7F4F8F4F9F4F16C088231E
:101FA00011F096E911C0772321F09EE8872F762F54
:101FB00005C0662371F096E8862F70E060E02AF095
:101FC0009A95660F771F881FDAF7880F9695879581
:101FD00097F90895E894F92F96EBFF2381F01216F4
:101FE00013061406440B9395F69587957795679598
:101FF00057954040FF23B9F71BC0992708958823C0
:1020000051F49850D2F7872B762F652F542F432FFA
:10201000322F20E0B1F3121613061406440B882366
:102020003AF09A95440F551F661F771F881FCAF70D
:1020300055234AF4440F551F11F460FF04C06F5F2D
:102040007F4F8F4F9F4F880F9695879597F90895EB
:10205000990F0008550FAA0BE0E8FEEF16161706B9
:10206000E807F907C0F012161306E407F50798F021
:10207000621B730B840B950B39F40A2661F0232B3A
:10208000242B252B21F408950A2609F4A140A695B6
:102090008FEF811D811D089597F99F6780E870E09B
:1020A00060E008959FEF80EC089500240A941616CE
:1020B000170618060906089500240A941216130636
:1020C000140605060895092E0394000C11F48823C4
:1020D00052F0BB0F40F4BF2B11F460FF04C06F5FE0
:1020E0007F4F8F4F9F4F089557FD9058440F551FB6
:1020F00059F05F3F71F04795880F97FB991F61F08A
:102100009F3F79F087950895121613061406551F00
:10211000F2CF4695F1DF08C0161617061806991F6C
:10212000F1CF86957105610508940895E894BB2761
:1021300066277727CB0197F908950E94281008F4A5
:102140008FEF08950E94B5100C9463100E945510F3
:1021500038F00E945C1020F0952311F00C944C1084
:102160000C94521011240C9497100E94741070F368
:10217000959FC1F3950F50E0551F629FF001729F2C
:10218000BB27F00DB11D639FAA27F00DB11DAA1F3B
:10219000649F6627B00DA11D661F829F2227B00D88
:1021A000A11D621F739FB00DA11D621F839FA00D13
:1021B000611D221F749F3327A00D611D231F849F63
:1021C000600D211D822F762F6A2F11249F575040BA
:1021D0009AF0F1F088234AF0EE0FFF1FBB1F661F35
:1021E000771F881F91505040A9F79E3F510580F0FE
:1021F0000C944C100C9497105F3FE4F3983ED4F38A
:10220000869577956795B795F795E7959F5FC1F7A1
:10221000FE2B880F911D9695879597F908950E943A
:102220002810880B990B0895DB018F939F930E94D0
:102230006511BF91AF91A29F800D911DA39F900D3D
:10224000B29F900D11240895A1E21A2EAA1BBB1B68
:10225000FD010DC0AA1FBB1FEE1FFF1FA217B30772
:10226000E407F50720F0A21BB30BE40BF50B661F88
:10227000771F881F991F1A9469F76095709580954C
:1022800090959B01AC01BD01CF010895052E97FBF0
:102290001EF400940E945D1157FD07D00E94241186
:1022A00007FC03D04EF40C945D1150954095309589
:1022B00021953F4F4F4F5F4F0895909580957095B2
:1022C00061957F4F8F4F9F4F08950E94C111A59F29
:1022D000900DB49F900DA49F800D911D1124089521
:1022E000B7FF0C9465110E946511821B930B089532
:1022F00097FB57FF0C9488119F938F930E9488112E
:102300006E1B7F0BAF91BF918A0B9B0B0895E894D6
:10231000DF93CF93FC01DB010E94C1117F936F9388
:10232000E9019A01AC01BF93AF933F932F93DF0173
:102330000E94C11126F46C1B7D0B820B930B9E0136
:10234000EB01FC010E94D011AF91BF912F913F9101
:102350000E94D011BE01CF01F9012F913F91CF9181
:10236000DF9108952A193B094C095D096E097F091F
:10237000800B910B0895EE0FFF1F0590F491E02D57
:102380000994A29FB001B39FC001A39F700D811D4E
:102390001124911DB29F700D811D1124911D08956E
:1023A0000E94C111460F571FC81FD91F08F431964C
:1023B0000895F894FFCF000000004F01AF00DC004B
:1023C0009C010D01EB00FF00000000001204E5037A
:1023D0004704AC03A600BC03AD0300000000E00608
:1023E000AF00470446046E616E00696E66006F764A
:1023F000660073746172740068656C6C6F004300F2
:0624000025005061000000
:107800000C94343C0C94513C0C94513C0C94513CE1
:107810000C94513C0C94513C0C94513C0C94513CB4
:107820000C94513C0C94513C0C94513C0C94513CA4
:107830000C94513C0C94513C0C94513C0C94513C94
:107840000C94513C0C94513C0C94513C0C94513C84
:107850000C94513C0C94513C0C94513C0C94513C74
:107860000C94513C0C94513C11241FBECFEFD8E036
:10787000DEBFCDBF11E0A0E0B1E0EAE8FFE702C063
:1078800005900D92A230B107D9F712E0A2E0B1E065
:1078900001C01D92AD30B107E1F70E942D3D0C945F
:1078A000C33F0C94003C982F95959595959595958B
:1078B000905D8F708A307CF0282F295A8091C0000B
:1078C00085FFFCCF9093C6008091C00085FFFCCF60
:1078D0002093C6000895282F205DF0CF982F809127
:1078E000C00085FFFCCF9093C6000895EF92FF92F1
:1078F0000F931F93EE24FF2487018091C00087FD22
:1079000017C00894E11CF11C011D111D81E2E8164D
:1079100081EAF80687E0080780E0180770F3E09135
:107920000401F091050109958091C00087FFE9CF1E
:107930008091C6001F910F91FF90EF9008950E94D3
:10794000763C982F8091C00085FFFCCF9093C600B5
:1079500091362CF490330CF09053892F089597555D
:10796000892F08951F930E949F3C182F0E949F3CCF
:107970001295107F810F1F9108951F93182F882350
:1079800021F00E94763C1150E1F71F9108951F935A
:10799000182F0E94763C803249F0809103018F5F5E
:1079A000809303018530C1F01F9108958091C0003C
:1079B00085FFFCCF84E18093C6008091C00085FFE5
:1079C000FCCF1093C6008091C00085FFFCCF80E102
:1079D0008093C6001F910895E0910401F091050184
:1079E00009951F9108950E94763C803241F0809164
:1079F00003018F5F80930301853081F008958091AA
:107A0000C00085FFFCCF84E18093C6008091C00058
:107A100085FFFCCF80E18093C6000895E0910401CA
:107A2000F09105010995089548EC50E08823A1F0F4
:107A30002D9A28EE33E0FA013197F1F721503040CA
:107A4000D1F72D9828EE33E0FA013197F1F7215064
:107A50003040D1F7815061F708953F924F925F9285
:107A60006F927F928F929F92AF92BF92CF92DF924E
:107A7000EF92FF920F931F93CF93DF93000082E06A
:107A80008093C00080E18093C4001092C50088E11B
:107A90008093C10086E08093C2005098589A259A3E
:107AA00081E00E94143D24E1F22E9EE1E92E85E959
:107AB000D82E0FE0C02E10E1B12EAA24A394B1E479
:107AC0009B2EA6E58A2EF2E57F2EE0E26E2E79E46B
:107AD000572E63E5462E50E5352E0E94763C8033C6
:107AE000B1F18133B9F1803409F46FC0813409F404
:107AF00076C0823409F485C0853409F488C08035A5
:107B000031F1823521F1813511F1853509F485C0D6
:107B1000863509F48DC0843609F496C0843709F49B
:107B200003C1853709F472C1863709F466C08091B4
:107B300003018F5F80930301853079F6E0910401A2
:107B4000F091050109950E94763C803351F60E9420
:107B5000F33CC3CF0E94763C803249F78091C0004D
:107B600085FFFCCFF092C6008091C00085FFFCCF5E
:107B70009092C6008091C00085FFFCCF8092C60025
:107B80008091C00085FFFCCF7092C6008091C0003C
:107B900085FFFCCF6092C6008091C00085FFFCCFBE
:107BA0005092C6008091C00085FFFCCF4092C60075
:107BB0008091C00085FFFCCF3092C6008091C0004C
:107BC00085FFFCCFB092C60088CF0E94763C8638F5
:107BD00008F4BDCF0E94763C0E94F33C7ECF0E9409
:107BE000763C803809F49CC0813809F40BC1823896
:107BF00009F430C1883909F48FC080E00E94C73C85
:107C00006CCF84E10E94BD3C0E94F33C66CF85E0CE
:107C10000E94BD3C0E94F33C60CF0E94763C809362
:107C200006010E94763C809307010E94F33C55CFE9
:107C30000E94763C803309F411C183E00E94BD3C70
:107C400080E00E94C73C49CF0E94763C80930902A5
:107C50000E94763C8093080280910C028E7F809374
:107C60000C020E94763C853409F409C18091080217
:107C700090910902892B89F000E010E00E94763C87
:107C8000F801E85FFE4F80830F5F1F4F809108026D
:107C9000909109020817190788F30E94763C8032F8
:107CA00009F045CF80910C0280FFF5C0609106017C
:107CB00070910701660F771F7093070160930601AB
:107CC000A0910802B09109021097C9F0E8E0F1E034
:107CD0009B01AD014E0F5F1FF999FECF32BD21BD53
:107CE000819180BDFA9AF99A2F5F3F4FE417F5070B
:107CF00099F76A0F7B1F70930701609306018091CB
:107D0000C00085FFFCCFF092C6008091C00085FFC7
:107D1000FCCFB092C600E1CE83E00E94C73CDDCE2E
:107D200082E00E94C73CD9CE0E94763C8093090233
:107D30000E94763C80930802809106019091070191
:107D4000880F991F90930701809306010E94763C4B
:107D5000853409F49AC080910C028E7F80930C02C6
:107D60000E94763C803209F0B8CE8091C00085FF39
:107D7000FCCFF092C600A0910802B09109021097C2
:107D8000C1F180910C02082F0170182F1695117007
:107D9000E0910601F0910701AF014F5F5F4FBA011B
:107DA00020E030E00023B1F4112339F49491809164
:107DB000C00085FFFCCF9093C6002F5F3F4FCB01E3
:107DC0000196FA012A173B0780F4BC014F5F5F4F11
:107DD000002351F3F999FECFF2BDE1BDF89A90B5B9
:107DE0008091C00085FFFCCFE6CF709307016093C0
:107DF00006018091C00085FDE5CE8091C00085FF21
:107E0000F8CFE0CE81E00E94C73C67CE0E94763C6E
:107E1000803209F08CCE8091C00085FFFCCFF092BB
:107E2000C6008091C00085FFFCCFE092C600809123
:107E3000C00085FFFCCFD092C6008091C00085FFB6
:107E4000FCCFC092C6008091C00085FFFCCFB092ED
:107E5000C60043CE80E10E94C73C3FCE0E94763CE4
:107E60000E94763C182F0E94763C112309F483C0AF
:107E7000113009F484C08FE00E94C73C2ECE80915F
:107E80000C02816080930C02F1CE80910C02816023
:107E900080930C0265CF809107018823880F880B9F
:107EA0008A2180930B028091060190910701880F2F
:107EB000991F90930701809306018091080280FF2B
:107EC00009C08091080290910902019690930902DD
:107ED00080930802F894F999FECF1127E0910601EA
:107EE000F0910701C8E0D1E0809108029091090269
:107EF000103091F40091570001700130D9F303E084
:107F000000935700E8950091570001700130D9F3B4
:107F100001E100935700E8950990199000915700EE
:107F200001700130D9F301E000935700E8951395F3
:107F3000103498F011270091570001700130D9F3E7
:107F400005E000935700E89500915700017001305B
:107F5000D9F301E100935700E8953296029709F0B2
:107F6000C7CF103011F00296E5CF11248091C000E8
:107F700085FFC5CEC8CE8EE10E94C73CAECD85E957
:0C7F80000E94C73CAACDF894FFCF8000FF
:00000001FF
